:020000004E2987
:10000800FF00030E8301A4000A08A5008A01A601C7
:10001800A701061856288D20051785178511013068
:10002800A6000030A7000230FB004530FC00A930D4
:10003800FD00FD0B1D28FC0B1D28FB0B1D280000D7
:100048000000061856288515851705130230A600E6
:100058000030A7000430FB00CF30FC000130FD0069
:10006800FD0B3428FC0B3428FB0B3428000000005F
:10007800061856288515051785130330A600003085
:10008800A7000330FB008A30FC005530FD00FD0B53
:100098004B28FC0B4B28FB0B4B28000000000618D4
:1000A8005628851700302706031D5C2801302606D0
:1000B800031D6028E620732800302706031D6628E4
:1000C80002302606031D6A28A02073280030270660
:1000D800031D702803302606031D732814212508E4
:0C00E8008A00240E8300FF0E7F0E09002A
:0E00F4008312031323088A00220882000800EA
:100102007A208A110A128000840AA20A0319A30A19
:08011200F003031D8128080021
:10011A008312031305150330FB008A30FC005530A7
:10012A00FD00FD0B9628FC0B9628FB0B9628000079
:06013A00000005110800A1
:100140000030831203132106031DA8280130200666
:10015000031DBE2805140230FB004530FC00A93009
:10016000FD00FD0BB128FC0BB128FB0BB1280000F2
:1001700000000510A00DA10D2010E1282108013A72
:10018000031DC42800302006031DCE28A001A101B4
:1001900086010130A0000030A100E128200886007F
:1001A000A00DA10D20100230FB004530FC00A9304D
:1001B000FD00FD0BD928FC0BD928FB0BD92800002A
:0C01C00000000618E428E528A02808002C
:1001CC000030831203132106031DEE280030200695
:1001DC00031DF62805140130A0000030A1001329DE
:1001EC002108013A031DFC2800302006031D0229BA
:1001FC00A001A1018601132900302106031D082945
:10020C0001302006031D0E290510A00DA10D201094
:0C021C0020088600A00DA10D2010080095
:100228000030831203132106031D1C290130200608
:10023800031D2C2905140230FC004B30FD00FD0B7A
:100248002329FC0B23290510A00DA10D20104929F5
:100258002108013A031D322900302006031D3C29DC
:10026800A001A10186010130A0000030A1004929A8
:1002780020088600A00DA10D20100230FC004B3094
:10028800FD00FD0B4529FC0B452906184C294D2975
:04029800142908001D
:10029C0083120313A001A101023083168500C8301C
:1002AC008312850001308316860083128601831623
:1002BC008E15073083129F0090308B0083168101BE
:0402CC00662967290F
:02400E00182177
:00000001FF
