:02000000D728FF
:0E0006008312031323088A00220882000800D8
:1000140003208A110A128000840AA20A0319A30A7F
:08002400F003031D0A28080087
:10002C008312031305150330FB008A30FC00553096
:10003C00FD00FD0B1F28FC0B1F28FB0B1F280000CD
:06004C0000000511080090
:100052000030831203132106031D312801302006CC
:10006200031D412805140230FC004B30FD00FD0B3E
:100072003828FC0B38280510A00DA10D20105E2891
:100082002108013A031D472800302006031D51288C
:10009200A001A10186010130A0000030A1005E286C
:1000A20020088600A00DA10D20100230FC004B306C
:1000B200FD00FD0B5A28FC0B5A28061861286228FD
:0400C20029280800E1
:1000C6000030831203132106031D6B28003020061F
:1000D600031D732805140130A0000030A1009028EC
:1000E6002108013A031D792800302006031D7F28C8
:1000F600A001A1018601902800302106031D852854
:1001060001302006031D8B280510A00DA10D20101F
:0C01160020088600A00DA10D201008009C
:100122000030831203132106031D99280130200693
:10013200031DAF2805140230FB004530FC00A93036
:10014200FD00FD0BA228FC0BA228FB0BA22800003D
:1001520000000510A00DA10D2010D2282108013A9F
:10016200031DB52800302006031DBF28A001A101F0
:1001720086010130A0000030A100D22820088600AC
:10018200A00DA10D20100230FB004530FC00A9306B
:10019200FD00FD0BCA28FC0BCA28FB0BCA28000075
:0C01A20000000618D528D6289128080077
:1001AE0083120313A001A101023083168500C8300B
:1001BE008312850001308316860083128601831612
:1001CE008E15073083129F00A401A501061836294B
:1001DE0016200517851785110130A4000030A500E3
:1001EE000230FB004530FC00A930FD00FD0BFD2860
:1001FE00FC0BFD28FB0BFD2800000000061836291D
:10020E008515851705130230A4000030A5000430B3
:10021E00FB00CF30FC000130FD00FD0B1429FC0B60
:10022E001429FB0B14290000000006183629851529
:10023E00051785130330A4000030A5000330FB0022
:10024E008A30FC005530FD00FD0B2B29FC0B2B29B1
:10025E00FB0B2B29000000000618362985170030ED
:10026E002506031D3C2901302406031D4029632069
:10027E00532900302506031D462902302406031D8E
:10028E004A299120532900302506031D5029033099
:0C029E002406031D53292920EB285429B5
:02400E00182177
:00000001FF
