:02000000862850
:100006008312031305140230FB004530FC00A930AF
:10001600FD00FD0B0C28FC0B0C28FB0B0C2800002C
:100026000000051086140230FB004530FC00A930A4
:10003600FD00FD0B1C28FC0B1C28FB0B1C280000DC
:100046000000861006150230FB004530FC00A93082
:10005600FD00FD0B2C28FC0B2C28FB0B2C2800008C
:100066000000061186150230FB004530FC00A93061
:10007600FD00FD0B3C28FC0B3C28FB0B3C2800003C
:100086000000861106160230FB004530FC00A93040
:10009600FD00FD0B4C28FC0B4C28FB0B4C280000EC
:1000A6000000061286160230FB004530FC00A9301F
:1000B600FD00FD0B5C28FC0B5C28FB0B5C2800009C
:1000C6000000861206170230FB004530FC00A930FE
:1000D600FD00FD0B6C28FC0B6C28FB0B6C2800004C
:1000E6000000061386170230FB004530FC00A930DD
:1000F600FD00FD0B7C28FC0B7C28FB0B7C280000FC
:0601060000008613080052
:10010C000230831603138500C8308312850001303A
:10011C00831686008312860183168E150730831290
:0C012C009F0006189A28032097289B28A3
:02400E00182177
:00000001FF
