:02000000E728EF
:0E0006008312031323088A00220882000800D8
:1000140003208A110A128000840AA20A0319A30A7F
:08002400F003031D0A28080087
:10002C008312031386018515051785170510851096
:02003C000800BA
:10003E008312031305140510861486100615061177
:10004E0086158611061606128616861206170613D2
:0E005E00861786130618342835281F28080038
:10006C000030831203132106031D3E2800302006A6
:10007C00031D462805140130A0000030A1006328A0
:10008C002108013A031D4C2800302006031D52287C
:10009C00A001A1018601632800302106031D582808
:1000AC0001302006031D5E280510A00DA10D2010A7
:0C00BC0020088600A00DA10D20100800F7
:1000C8008312031305140230FB004530FC00A930ED
:1000D800FD00FD0B6D28FC0B6D28FB0B6D28000047
:1000E8000000051086140230FB004530FC00A930E2
:1000F800FD00FD0B7D28FC0B7D28FB0B7D280000F7
:100108000000861006150230FB004530FC00A930BF
:10011800FD00FD0B8D28FC0B8D28FB0B8D280000A6
:100128000000061186150230FB004530FC00A9309E
:10013800FD00FD0B9D28FC0B9D28FB0B9D28000056
:100148000000861106160230FB004530FC00A9307D
:10015800FD00FD0BAD28FC0BAD28FB0BAD28000006
:100168000000061286160230FB004530FC00A9305C
:10017800FD00FD0BBD28FC0BBD28FB0BBD280000B6
:100188000000861206170230FB004530FC00A9303B
:10019800FD00FD0BCD28FC0BCD28FB0BCD28000066
:1001A8000000061386170230FB004530FC00A9301A
:1001B800FD00FD0BDD28FC0BDD28FB0BDD28000016
:0601C80000008613080090
:1001CE0083120313A001A101023083168500C830EB
:1001DE0083128500013083168600831286018316F2
:1001EE008E15073083129F0083120313A401A501FD
:1001FE00061813290130A4000030A5000230FB00C0
:10020E004530FC00A930FD00FD0B0B29FC0B0B2922
:10021E00FB0B0B2900000000061827290230A40052
:10022E000030A5000430FB00CF30FC000130FD0093
:10023E00FD0B1F29FC0B1F29FB0B1F2900000000C3
:10024E0006182D290330A4000030A5000030250625
:10025E00031D332901302406031D4729162085115D
:10026E000230FB004530FC00A930FD00FD0B3D299E
:10027E00FC0B3D29FB0B3D290000000036207A299E
:10028E0000302506031D4D2902302406031D612969
:10029E00162005130230FB004530FC00A930FD008E
:1002AE00FD0B5729FC0B5729FB0B572900000000AB
:1002BE0064207A2900302506031D672903302406A1
:1002CE00031D7A29162085130230FB004530FC00F1
:1002DE00A930FD00FD0B7129FC0B7129FB0B712957
:0A02EE00000000001F20FB287B2900
:02400E00182177
:00000001FF
