:02000000452891
:0E0006008312031323088A00220882000800D8
:1000140003208A110A128000840AA20A0319A30A7F
:08002400F003031D0A28080087
:10002C000030831203132106031D1E280030200606
:10003C00031D272805140130A0000030A1008511F4
:10004C0044282108013A031D2D2800302006031DE9
:10005C003328A001A1018601442800302106031D8C
:10006C00392801302006031D3F280510A00DA10DD5
:0E007C00201020088600A00DA10D2010080005
:10008A0083120313A001A101023083168500C83030
:10009A008312850001308316860083128601831637
:1000AA008E15073083129F0006186A281620023020
:1000BA00FB004530FC00A930FD00FD0B6228FC0B5B
:0E00CA006228FB0B62280000000059286B28FA
:02400E00182177
:00000001FF
