:0200000038289E
:10000800FF00030E8301A5000A08A6008A017B08E9
:10001800A2007C08A1007D08A00090308B00061289
:1000280086150630FB001330FC00AD30FD00FD0BDB
:100038001B28FC0B1B28FB0B1B280000000086114B
:100048002208FB002108FC002008FD0026088A0081
:0A005800250E8300FF0E7F0E090045
:0E00620090308B00403083160313810008009D
:100070000230831603138500C830831285000130D7
:10008000831686008312860183168E15073083122D
:100090009F003120831206160630FB001330FC004F
:1000A000AD30FD00FD0B5228FC0B5228FB0B5228F3
:1000B0000000000006120630FB001330FC00AD30DB
:1000C000FD00FD0B6128FC0B6128FB0B6128000083
:0600D00000004A286A2826
:02400E00582137
:00000001FF
